8=FIX.4.4|9=84|35=A|34=1|49=baiju|52=20140324-00:54:12.518|56=OANDA|1=|141=Y|553=baijud|554=oanda1|10=071|