8=FIX.4.4|9=85|35=A|34=1|49=baijud|52=20140324-01:08:59.735|56=OANDA|1=|141=Y|553=baijud|554=oanda1|10=184|